{
  "_format": "hh-sol-artifact-1",
  "contractName": "NFT",
  "sourceName": "contracts/NFT.sol",
  "abi": [
    {
      "inputs": [],
      "stateMutability": "nonpayable",
      "type": "constructor"
    },
    {
      "anonymous": false,
      "inputs": [
        {
          "indexed": true,
          "internalType": "address",
          "name": "owner",
          "type": "address"
        },
        {
          "indexed": true,
          "internalType": "address",
          "name": "approved",
          "type": "address"
        },
        {
          "indexed": true,
          "internalType": "uint256",
          "name": "tokenId",
          "type": "uint256"
        }
      ],
      "name": "Approval",
      "type": "event"
    },
    {
      "anonymous": false,
      "inputs": [
        {
          "indexed": true,
          "internalType": "address",
          "name": "owner",
          "type": "address"
        },
        {
          "indexed": true,
          "internalType": "address",
          "name": "operator",
          "type": "address"
        },
        {
          "indexed": false,
          "internalType": "bool",
          "name": "approved",
          "type": "bool"
        }
      ],
      "name": "ApprovalForAll",
      "type": "event"
    },
    {
      "anonymous": false,
      "inputs": [
        {
          "indexed": true,
          "internalType": "uint256",
          "name": "tokenId",
          "type": "uint256"
        },
        {
          "indexed": false,
          "internalType": "address",
          "name": "seller",
          "type": "address"
        },
        {
          "indexed": false,
          "internalType": "address",
          "name": "owner",
          "type": "address"
        },
        {
          "indexed": false,
          "internalType": "uint256",
          "name": "price",
          "type": "uint256"
        },
        {
          "indexed": false,
          "internalType": "bool",
          "name": "sold",
          "type": "bool"
        }
      ],
      "name": "MarketItemCreated",
      "type": "event"
    },
    {
      "anonymous": false,
      "inputs": [
        {
          "indexed": true,
          "internalType": "address",
          "name": "from",
          "type": "address"
        },
        {
          "indexed": true,
          "internalType": "address",
          "name": "to",
          "type": "address"
        },
        {
          "indexed": true,
          "internalType": "uint256",
          "name": "tokenId",
          "type": "uint256"
        }
      ],
      "name": "Transfer",
      "type": "event"
    },
    {
      "inputs": [
        {
          "internalType": "address",
          "name": "to",
          "type": "address"
        },
        {
          "internalType": "uint256",
          "name": "tokenId",
          "type": "uint256"
        }
      ],
      "name": "approve",
      "outputs": [],
      "stateMutability": "nonpayable",
      "type": "function"
    },
    {
      "inputs": [
        {
          "internalType": "address",
          "name": "owner",
          "type": "address"
        }
      ],
      "name": "balanceOf",
      "outputs": [
        {
          "internalType": "uint256",
          "name": "",
          "type": "uint256"
        }
      ],
      "stateMutability": "view",
      "type": "function"
    },
    {
      "inputs": [
        {
          "internalType": "uint256",
          "name": "tokenId",
          "type": "uint256"
        }
      ],
      "name": "createMarketSale",
      "outputs": [],
      "stateMutability": "payable",
      "type": "function"
    },
    {
      "inputs": [
        {
          "internalType": "string",
          "name": "tokenURI",
          "type": "string"
        },
        {
          "internalType": "uint256",
          "name": "price",
          "type": "uint256"
        },
        {
          "internalType": "string",
          "name": "_title",
          "type": "string"
        },
        {
          "internalType": "string",
          "name": "_description",
          "type": "string"
        }
      ],
      "name": "createToken",
      "outputs": [
        {
          "internalType": "uint256",
          "name": "",
          "type": "uint256"
        }
      ],
      "stateMutability": "payable",
      "type": "function"
    },
    {
      "inputs": [],
      "name": "fetchItemsListed",
      "outputs": [
        {
          "components": [
            {
              "internalType": "uint256",
              "name": "tokenId",
              "type": "uint256"
            },
            {
              "internalType": "address payable",
              "name": "seller",
              "type": "address"
            },
            {
              "internalType": "address payable",
              "name": "owner",
              "type": "address"
            },
            {
              "internalType": "string",
              "name": "title",
              "type": "string"
            },
            {
              "internalType": "string",
              "name": "description",
              "type": "string"
            },
            {
              "internalType": "uint256",
              "name": "price",
              "type": "uint256"
            },
            {
              "internalType": "bool",
              "name": "sold",
              "type": "bool"
            }
          ],
          "internalType": "struct NFT.MarketItem[]",
          "name": "",
          "type": "tuple[]"
        }
      ],
      "stateMutability": "view",
      "type": "function"
    },
    {
      "inputs": [],
      "name": "fetchMarketItems",
      "outputs": [
        {
          "components": [
            {
              "internalType": "uint256",
              "name": "tokenId",
              "type": "uint256"
            },
            {
              "internalType": "address payable",
              "name": "seller",
              "type": "address"
            },
            {
              "internalType": "address payable",
              "name": "owner",
              "type": "address"
            },
            {
              "internalType": "string",
              "name": "title",
              "type": "string"
            },
            {
              "internalType": "string",
              "name": "description",
              "type": "string"
            },
            {
              "internalType": "uint256",
              "name": "price",
              "type": "uint256"
            },
            {
              "internalType": "bool",
              "name": "sold",
              "type": "bool"
            }
          ],
          "internalType": "struct NFT.MarketItem[]",
          "name": "",
          "type": "tuple[]"
        }
      ],
      "stateMutability": "view",
      "type": "function"
    },
    {
      "inputs": [],
      "name": "fetchMyNFTs",
      "outputs": [
        {
          "components": [
            {
              "internalType": "uint256",
              "name": "tokenId",
              "type": "uint256"
            },
            {
              "internalType": "address payable",
              "name": "seller",
              "type": "address"
            },
            {
              "internalType": "address payable",
              "name": "owner",
              "type": "address"
            },
            {
              "internalType": "string",
              "name": "title",
              "type": "string"
            },
            {
              "internalType": "string",
              "name": "description",
              "type": "string"
            },
            {
              "internalType": "uint256",
              "name": "price",
              "type": "uint256"
            },
            {
              "internalType": "bool",
              "name": "sold",
              "type": "bool"
            }
          ],
          "internalType": "struct NFT.MarketItem[]",
          "name": "",
          "type": "tuple[]"
        }
      ],
      "stateMutability": "view",
      "type": "function"
    },
    {
      "inputs": [
        {
          "internalType": "uint256",
          "name": "tokenId",
          "type": "uint256"
        }
      ],
      "name": "getApproved",
      "outputs": [
        {
          "internalType": "address",
          "name": "",
          "type": "address"
        }
      ],
      "stateMutability": "view",
      "type": "function"
    },
    {
      "inputs": [],
      "name": "getListingPrice",
      "outputs": [
        {
          "internalType": "uint256",
          "name": "",
          "type": "uint256"
        }
      ],
      "stateMutability": "view",
      "type": "function"
    },
    {
      "inputs": [
        {
          "internalType": "address",
          "name": "owner",
          "type": "address"
        },
        {
          "internalType": "address",
          "name": "operator",
          "type": "address"
        }
      ],
      "name": "isApprovedForAll",
      "outputs": [
        {
          "internalType": "bool",
          "name": "",
          "type": "bool"
        }
      ],
      "stateMutability": "view",
      "type": "function"
    },
    {
      "inputs": [],
      "name": "name",
      "outputs": [
        {
          "internalType": "string",
          "name": "",
          "type": "string"
        }
      ],
      "stateMutability": "view",
      "type": "function"
    },
    {
      "inputs": [
        {
          "internalType": "uint256",
          "name": "tokenId",
          "type": "uint256"
        }
      ],
      "name": "ownerOf",
      "outputs": [
        {
          "internalType": "address",
          "name": "",
          "type": "address"
        }
      ],
      "stateMutability": "view",
      "type": "function"
    },
    {
      "inputs": [
        {
          "internalType": "uint256",
          "name": "tokenId",
          "type": "uint256"
        },
        {
          "internalType": "uint256",
          "name": "price",
          "type": "uint256"
        }
      ],
      "name": "resellToken",
      "outputs": [],
      "stateMutability": "payable",
      "type": "function"
    },
    {
      "inputs": [
        {
          "internalType": "address",
          "name": "from",
          "type": "address"
        },
        {
          "internalType": "address",
          "name": "to",
          "type": "address"
        },
        {
          "internalType": "uint256",
          "name": "tokenId",
          "type": "uint256"
        }
      ],
      "name": "safeTransferFrom",
      "outputs": [],
      "stateMutability": "nonpayable",
      "type": "function"
    },
    {
      "inputs": [
        {
          "internalType": "address",
          "name": "from",
          "type": "address"
        },
        {
          "internalType": "address",
          "name": "to",
          "type": "address"
        },
        {
          "internalType": "uint256",
          "name": "tokenId",
          "type": "uint256"
        },
        {
          "internalType": "bytes",
          "name": "data",
          "type": "bytes"
        }
      ],
      "name": "safeTransferFrom",
      "outputs": [],
      "stateMutability": "nonpayable",
      "type": "function"
    },
    {
      "inputs": [
        {
          "internalType": "address",
          "name": "operator",
          "type": "address"
        },
        {
          "internalType": "bool",
          "name": "approved",
          "type": "bool"
        }
      ],
      "name": "setApprovalForAll",
      "outputs": [],
      "stateMutability": "nonpayable",
      "type": "function"
    },
    {
      "inputs": [
        {
          "internalType": "bytes4",
          "name": "interfaceId",
          "type": "bytes4"
        }
      ],
      "name": "supportsInterface",
      "outputs": [
        {
          "internalType": "bool",
          "name": "",
          "type": "bool"
        }
      ],
      "stateMutability": "view",
      "type": "function"
    },
    {
      "inputs": [],
      "name": "symbol",
      "outputs": [
        {
          "internalType": "string",
          "name": "",
          "type": "string"
        }
      ],
      "stateMutability": "view",
      "type": "function"
    },
    {
      "inputs": [
        {
          "internalType": "uint256",
          "name": "tokenId",
          "type": "uint256"
        }
      ],
      "name": "tokenURI",
      "outputs": [
        {
          "internalType": "string",
          "name": "",
          "type": "string"
        }
      ],
      "stateMutability": "view",
      "type": "function"
    },
    {
      "inputs": [
        {
          "internalType": "address",
          "name": "from",
          "type": "address"
        },
        {
          "internalType": "address",
          "name": "to",
          "type": "address"
        },
        {
          "internalType": "uint256",
          "name": "tokenId",
          "type": "uint256"
        }
      ],
      "name": "transferFrom",
      "outputs": [],
      "stateMutability": "nonpayable",
      "type": "function"
    },
    {
      "inputs": [
        {
          "internalType": "uint256",
          "name": "_listingPrice",
          "type": "uint256"
        }
      ],
      "name": "updateListingPrice",
      "outputs": [],
      "stateMutability": "payable",
      "type": "function"
    }
  ],
  "bytecode": "0x60806040526658d15e176280006009553480156200001c57600080fd5b50604080518082018252601081526f4d657461766572736520546f6b656e7360801b6020808301918252835180850190945260048452631351551560e21b9084015281519192916200007191600091620000a2565b50805162000087906001906020840190620000a2565b5050600a80546001600160a01b031916331790555062000185565b828054620000b09062000148565b90600052602060002090601f016020900481019282620000d457600085556200011f565b82601f10620000ef57805160ff19168380011785556200011f565b828001600101855582156200011f579182015b828111156200011f57825182559160200191906001019062000102565b506200012d92915062000131565b5090565b5b808211156200012d576000815560010162000132565b600181811c908216806200015d57607f821691505b602082108114156200017f57634e487b7160e01b600052602260045260246000fd5b50919050565b6125a280620001956000396000f3fe6080604052600436106100fa5760003560e01c806301ffc9a7146100ff57806306fdde0314610134578063081812fc14610156578063095ea7b31461018e5780630f08efe0146101b057806312e85585146101d2578063202e3740146101f157806323b872dd1461020657806342842e0e1461022657806345f8fa80146102465780636352211e1461025b57806370a082311461027b57806395d89b411461029b578063a22cb465146102b0578063ae677aa3146102d0578063b88d4fde146102e3578063be9af53614610303578063c87b56dd14610316578063e219fc7514610336578063e7c3a03e14610349578063e985e9c51461035c575b600080fd5b34801561010b57600080fd5b5061011f61011a366004611e78565b61037c565b60405190151581526020015b60405180910390f35b34801561014057600080fd5b506101496103ce565b60405161012b9190611eed565b34801561016257600080fd5b50610176610171366004611f00565b610460565b6040516001600160a01b03909116815260200161012b565b34801561019a57600080fd5b506101ae6101a9366004611f35565b610487565b005b3480156101bc57600080fd5b506101c56105a2565b60405161012b9190611f5f565b3480156101de57600080fd5b506009545b60405190815260200161012b565b3480156101fd57600080fd5b506101c5610847565b34801561021257600080fd5b506101ae61022136600461202b565b610b2a565b34801561023257600080fd5b506101ae61024136600461202b565b610b5b565b34801561025257600080fd5b506101c5610b76565b34801561026757600080fd5b50610176610276366004611f00565b610e59565b34801561028757600080fd5b506101e3610296366004612067565b610e8e565b3480156102a757600080fd5b50610149610f14565b3480156102bc57600080fd5b506101ae6102cb366004612082565b610f23565b6101ae6102de366004611f00565b610f32565b3480156102ef57600080fd5b506101ae6102fe366004612149565b610faa565b6101ae610311366004611f00565b610fe2565b34801561032257600080fd5b50610149610331366004611f00565b611147565b6101ae6103443660046121c4565b611258565b6101e3610357366004612206565b611350565b34801561036857600080fd5b5061011f61037736600461228b565b611396565b60006001600160e01b031982166380ac58cd60e01b14806103ad57506001600160e01b03198216635b5e139f60e01b145b806103c857506301ffc9a760e01b6001600160e01b03198316145b92915050565b6060600080546103dd906122be565b80601f0160208091040260200160405190810160405280929190818152602001828054610409906122be565b80156104565780601f1061042b57610100808354040283529160200191610456565b820191906000526020600020905b81548152906001019060200180831161043957829003601f168201915b5050505050905090565b600061046b826113c4565b506000908152600460205260409020546001600160a01b031690565b600061049282610e59565b9050806001600160a01b0316836001600160a01b031614156105055760405162461bcd60e51b815260206004820152602160248201527f4552433732313a20617070726f76616c20746f2063757272656e74206f776e656044820152603960f91b60648201526084015b60405180910390fd5b336001600160a01b038216148061052157506105218133611396565b6105935760405162461bcd60e51b815260206004820152603e60248201527f4552433732313a20617070726f76652063616c6c6572206973206e6f7420746f60448201527f6b656e206f776e6572206e6f7220617070726f76656420666f7220616c6c000060648201526084016104fc565b61059d83836113ec565b505050565b606060006105af60075490565b905060006105bc60085490565b6007546105c9919061230f565b9050600080826001600160401b038111156105e6576105e66120be565b60405190808252806020026020018201604052801561061f57816020015b61060c611d78565b8152602001906001900390816106045790505b50905060005b8481101561083e5730600b600061063d846001612326565b81526020810191909152604001600020600201546001600160a01b0316141561082c57600061066d826001612326565b6000818152600b6020908152604091829020825160e0810184528154815260018201546001600160a01b03908116938201939093526002820154909216928201929092526003820180549394509192909183916060840191906106cf906122be565b80601f01602080910402602001604051908101604052809291908181526020018280546106fb906122be565b80156107485780601f1061071d57610100808354040283529160200191610748565b820191906000526020600020905b81548152906001019060200180831161072b57829003601f168201915b50505050508152602001600482018054610761906122be565b80601f016020809104026020016040519081016040528092919081815260200182805461078d906122be565b80156107da5780601f106107af576101008083540402835291602001916107da565b820191906000526020600020905b8154815290600101906020018083116107bd57829003601f168201915b50505091835250506005820154602082015260069091015460ff16151560409091015284518590879081106108115761081161233e565b6020908102919091010152610827600186612326565b945050505b8061083681612354565b915050610625565b50949350505050565b6060600061085460075490565b905060008060005b838110156108b75733600b6000610874846001612326565b81526020810191909152604001600020600201546001600160a01b031614156108a5576108a2600184612326565b92505b806108af81612354565b91505061085c565b506000826001600160401b038111156108d2576108d26120be565b60405190808252806020026020018201604052801561090b57816020015b6108f8611d78565b8152602001906001900390816108f05790505b50905060005b8481101561083e5733600b6000610929846001612326565b81526020810191909152604001600020600201546001600160a01b03161415610b18576000610959826001612326565b6000818152600b6020908152604091829020825160e0810184528154815260018201546001600160a01b03908116938201939093526002820154909216928201929092526003820180549394509192909183916060840191906109bb906122be565b80601f01602080910402602001604051908101604052809291908181526020018280546109e7906122be565b8015610a345780601f10610a0957610100808354040283529160200191610a34565b820191906000526020600020905b815481529060010190602001808311610a1757829003601f168201915b50505050508152602001600482018054610a4d906122be565b80601f0160208091040260200160405190810160405280929190818152602001828054610a79906122be565b8015610ac65780601f10610a9b57610100808354040283529160200191610ac6565b820191906000526020600020905b815481529060010190602001808311610aa957829003601f168201915b50505091835250506005820154602082015260069091015460ff1615156040909101528451859087908110610afd57610afd61233e565b6020908102919091010152610b13600186612326565b945050505b80610b2281612354565b915050610911565b610b34338261145a565b610b505760405162461bcd60e51b81526004016104fc9061236f565b61059d8383836114b8565b61059d83838360405180602001604052806000815250610faa565b60606000610b8360075490565b905060008060005b83811015610be65733600b6000610ba3846001612326565b81526020810191909152604001600020600101546001600160a01b03161415610bd457610bd1600184612326565b92505b80610bde81612354565b915050610b8b565b506000826001600160401b03811115610c0157610c016120be565b604051908082528060200260200182016040528015610c3a57816020015b610c27611d78565b815260200190600190039081610c1f5790505b50905060005b8481101561083e5733600b6000610c58846001612326565b81526020810191909152604001600020600101546001600160a01b03161415610e47576000610c88826001612326565b6000818152600b6020908152604091829020825160e0810184528154815260018201546001600160a01b0390811693820193909352600282015490921692820192909252600382018054939450919290918391606084019190610cea906122be565b80601f0160208091040260200160405190810160405280929190818152602001828054610d16906122be565b8015610d635780601f10610d3857610100808354040283529160200191610d63565b820191906000526020600020905b815481529060010190602001808311610d4657829003601f168201915b50505050508152602001600482018054610d7c906122be565b80601f0160208091040260200160405190810160405280929190818152602001828054610da8906122be565b8015610df55780601f10610dca57610100808354040283529160200191610df5565b820191906000526020600020905b815481529060010190602001808311610dd857829003601f168201915b50505091835250506005820154602082015260069091015460ff1615156040909101528451859087908110610e2c57610e2c61233e565b6020908102919091010152610e42600186612326565b945050505b80610e5181612354565b915050610c40565b6000818152600260205260408120546001600160a01b0316806103c85760405162461bcd60e51b81526004016104fc906123bd565b60006001600160a01b038216610ef85760405162461bcd60e51b815260206004820152602960248201527f4552433732313a2061646472657373207a65726f206973206e6f7420612076616044820152683634b21037bbb732b960b91b60648201526084016104fc565b506001600160a01b031660009081526003602052604090205490565b6060600180546103dd906122be565b610f2e338383611642565b5050565b600a546001600160a01b03163314610fa55760405162461bcd60e51b815260206004820152603060248201527f4f6e6c79206d61726b6574706c616365206f776e65722063616e20757064617460448201526f32903634b9ba34b73390383934b1b29760811b60648201526084016104fc565b600955565b610fb4338361145a565b610fd05760405162461bcd60e51b81526004016104fc9061236f565b610fdc8484848461170d565b50505050565b6000818152600b6020526040902060058101546001909101546001600160a01b031634821461107b576040805162461bcd60e51b81526020600482015260248101919091527f506c65617365207375626d6974207468652061736b696e67207072696365206960448201527f6e206f7264657220746f20636f6d706c6574652074686520707572636861736560648201526084016104fc565b6000838152600b602052604090206002810180546001600160a01b0319908116331790915560068201805460ff19166001908117909155909101805490911690556110ca600880546001019055565b6110d53033856114b8565b600a546009546040516001600160a01b039092169181156108fc0291906000818181858888f19350505050158015611111573d6000803e3d6000fd5b506040516001600160a01b038216903480156108fc02916000818181858888f19350505050158015610fdc573d6000803e3d6000fd5b6060611152826113c4565b6000828152600660205260408120805461116b906122be565b80601f0160208091040260200160405190810160405280929190818152602001828054611197906122be565b80156111e45780601f106111b9576101008083540402835291602001916111e4565b820191906000526020600020905b8154815290600101906020018083116111c757829003601f168201915b50505050509050600061120260408051602081019091526000815290565b9050805160001415611215575092915050565b81511561124757808260405160200161122f9291906123ef565b60405160208183030381529060405292505050919050565b61125084611740565b949350505050565b6000828152600b60205260409020600201546001600160a01b031633146112d45760405162461bcd60e51b815260206004820152602a60248201527f4f6e6c79206974656d206f776e65722063616e20706572666f726d20746869736044820152691037b832b930ba34b7b760b11b60648201526084016104fc565b60095434146112f55760405162461bcd60e51b81526004016104fc9061241e565b6000828152600b6020526040902060068101805460ff19169055600581018290556001810180546001600160a01b03199081163317909155600290910180549091163017905561134560086117b4565b610f2e3330846114b8565b6000611360600780546001019055565b600061136b60075490565b90506113773382611809565b6113818187611929565b61138d818686866119b4565b95945050505050565b6001600160a01b03918216600090815260056020908152604080832093909416825291909152205460ff1690565b6113cd81611b54565b6113e95760405162461bcd60e51b81526004016104fc906123bd565b50565b600081815260046020526040902080546001600160a01b0319166001600160a01b038416908117909155819061142182610e59565b6001600160a01b03167f8c5be1e5ebec7d5bd14f71427d1e84f3dd0314c0f7b2291e5b200ac8c7c3b92560405160405180910390a45050565b60008061146683610e59565b9050806001600160a01b0316846001600160a01b0316148061148d575061148d8185611396565b806112505750836001600160a01b03166114a684610460565b6001600160a01b031614949350505050565b826001600160a01b03166114cb82610e59565b6001600160a01b03161461152f5760405162461bcd60e51b815260206004820152602560248201527f4552433732313a207472616e736665722066726f6d20696e636f72726563742060448201526437bbb732b960d91b60648201526084016104fc565b6001600160a01b0382166115915760405162461bcd60e51b8152602060048201526024808201527f4552433732313a207472616e7366657220746f20746865207a65726f206164646044820152637265737360e01b60648201526084016104fc565b61159c6000826113ec565b6001600160a01b03831660009081526003602052604081208054600192906115c590849061230f565b90915550506001600160a01b03821660009081526003602052604081208054600192906115f3908490612326565b909155505060008181526002602052604080822080546001600160a01b0319166001600160a01b03868116918217909255915184939187169160008051602061254d83398151915291a4505050565b816001600160a01b0316836001600160a01b031614156116a05760405162461bcd60e51b815260206004820152601960248201527822a9219b99189d1030b8383937bb32903a379031b0b63632b960391b60448201526064016104fc565b6001600160a01b03838116600081815260056020908152604080832094871680845294825291829020805460ff191686151590811790915591519182527f17307eab39ab6107e8899845ad3d59bd9653f200f220920489ca2b5937696c31910160405180910390a3505050565b6117188484846114b8565b61172484848484611b71565b610fdc5760405162461bcd60e51b81526004016104fc90612462565b606061174b826113c4565b600061176260408051602081019091526000815290565b9050600081511161178257604051806020016040528060008152506117ad565b8061178c84611c7b565b60405160200161179d9291906123ef565b6040516020818303038152906040525b9392505050565b8054806118015760405162461bcd60e51b815260206004820152601b60248201527a436f756e7465723a2064656372656d656e74206f766572666c6f7760281b60448201526064016104fc565b600019019055565b6001600160a01b03821661185f5760405162461bcd60e51b815260206004820181905260248201527f4552433732313a206d696e7420746f20746865207a65726f206164647265737360448201526064016104fc565b61186881611b54565b156118b45760405162461bcd60e51b815260206004820152601c60248201527b115490cdcc8c4e881d1bdad95b88185b1c9958591e481b5a5b9d195960221b60448201526064016104fc565b6001600160a01b03821660009081526003602052604081208054600192906118dd908490612326565b909155505060008181526002602052604080822080546001600160a01b0319166001600160a01b038616908117909155905183929060008051602061254d833981519152908290a45050565b61193282611b54565b6119955760405162461bcd60e51b815260206004820152602e60248201527f45524337323155524953746f726167653a2055524920736574206f66206e6f6e60448201526d32bc34b9ba32b73a103a37b5b2b760911b60648201526084016104fc565b6000828152600660209081526040909120825161059d92840190611dc9565b60008311611a035760405162461bcd60e51b815260206004820152601c60248201527b5072696365206d757374206265206174206c6561737420312077656960201b60448201526064016104fc565b6009543414611a245760405162461bcd60e51b81526004016104fc9061241e565b6040805160e08101825285815233602080830191825230838501908152606084018781526080850187905260a08501899052600060c086018190528a8152600b8452959095208451815592516001840180546001600160a01b03199081166001600160a01b0393841617909155915160028501805490931691161790559251805192939192611ab99260038501920190611dc9565b5060808201518051611ad5916004840191602090910190611dc9565b5060a0820151600582015560c0909101516006909101805460ff1916911515919091179055611b053330866114b8565b604080513381523060208201529081018490526000606082015284907fb640004f1d14576d0c209e240cad0410e0d8c0c33a09375861fbadae2588a98d9060800160405180910390a250505050565b6000908152600260205260409020546001600160a01b0316151590565b60006001600160a01b0384163b15611c7357604051630a85bd0160e11b81526001600160a01b0385169063150b7a0290611bb59033908990889088906004016124b4565b602060405180830381600087803b158015611bcf57600080fd5b505af1925050508015611bff575060408051601f3d908101601f19168201909252611bfc918101906124f1565b60015b611c59573d808015611c2d576040519150601f19603f3d011682016040523d82523d6000602084013e611c32565b606091505b508051611c515760405162461bcd60e51b81526004016104fc90612462565b805181602001fd5b6001600160e01b031916630a85bd0160e11b149050611250565b506001611250565b606081611c9f5750506040805180820190915260018152600360fc1b602082015290565b8160005b8115611cc95780611cb381612354565b9150611cc29050600a83612524565b9150611ca3565b6000816001600160401b03811115611ce357611ce36120be565b6040519080825280601f01601f191660200182016040528015611d0d576020820181803683370190505b5090505b841561125057611d2260018361230f565b9150611d2f600a86612538565b611d3a906030612326565b60f81b818381518110611d4f57611d4f61233e565b60200101906001600160f81b031916908160001a905350611d71600a86612524565b9450611d11565b6040518060e001604052806000815260200160006001600160a01b0316815260200160006001600160a01b031681526020016060815260200160608152602001600081526020016000151581525090565b828054611dd5906122be565b90600052602060002090601f016020900481019282611df75760008555611e3d565b82601f10611e1057805160ff1916838001178555611e3d565b82800160010185558215611e3d579182015b82811115611e3d578251825591602001919060010190611e22565b50611e49929150611e4d565b5090565b5b80821115611e495760008155600101611e4e565b6001600160e01b0319811681146113e957600080fd5b600060208284031215611e8a57600080fd5b81356117ad81611e62565b60005b83811015611eb0578181015183820152602001611e98565b83811115610fdc5750506000910152565b60008151808452611ed9816020860160208601611e95565b601f01601f19169290920160200192915050565b6020815260006117ad6020830184611ec1565b600060208284031215611f1257600080fd5b5035919050565b80356001600160a01b0381168114611f3057600080fd5b919050565b60008060408385031215611f4857600080fd5b611f5183611f19565b946020939093013593505050565b60006020808301818452808551808352604092508286019150828160051b87010184880160005b8381101561201d57888303603f19018552815180518452878101516001600160a01b039081168986015287820151168785015260608082015160e08287018190529190611fd583880182611ec1565b9250505060808083015186830382880152611ff08382611ec1565b60a0858101519089015260c094850151151594909701939093525050509386019390860190600101611f86565b509098975050505050505050565b60008060006060848603121561204057600080fd5b61204984611f19565b925061205760208501611f19565b9150604084013590509250925092565b60006020828403121561207957600080fd5b6117ad82611f19565b6000806040838503121561209557600080fd5b61209e83611f19565b9150602083013580151581146120b357600080fd5b809150509250929050565b634e487b7160e01b600052604160045260246000fd5b60006001600160401b03808411156120ee576120ee6120be565b604051601f8501601f19908116603f01168101908282118183101715612116576121166120be565b8160405280935085815286868601111561212f57600080fd5b858560208301376000602087830101525050509392505050565b6000806000806080858703121561215f57600080fd5b61216885611f19565b935061217660208601611f19565b92506040850135915060608501356001600160401b0381111561219857600080fd5b8501601f810187136121a957600080fd5b6121b8878235602084016120d4565b91505092959194509250565b600080604083850312156121d757600080fd5b50508035926020909101359150565b600082601f8301126121f757600080fd5b6117ad838335602085016120d4565b6000806000806080858703121561221c57600080fd5b84356001600160401b038082111561223357600080fd5b61223f888389016121e6565b955060208701359450604087013591508082111561225c57600080fd5b612268888389016121e6565b9350606087013591508082111561227e57600080fd5b506121b8878288016121e6565b6000806040838503121561229e57600080fd5b6122a783611f19565b91506122b560208401611f19565b90509250929050565b600181811c908216806122d257607f821691505b602082108114156122f357634e487b7160e01b600052602260045260246000fd5b50919050565b634e487b7160e01b600052601160045260246000fd5b600082821015612321576123216122f9565b500390565b60008219821115612339576123396122f9565b500190565b634e487b7160e01b600052603260045260246000fd5b6000600019821415612368576123686122f9565b5060010190565b6020808252602e908201527f4552433732313a2063616c6c6572206973206e6f7420746f6b656e206f776e6560408201526d1c881b9bdc88185c1c1c9bdd995960921b606082015260800190565b602080825260189082015277115490cdcc8c4e881a5b9d985b1a59081d1bdad95b88125160421b604082015260600190565b60008351612401818460208801611e95565b835190830190612415818360208801611e95565b01949350505050565b60208082526024908201527f5072696365206d75737420626520657175616c20746f206c697374696e6720706040820152637269636560e01b606082015260800190565b60208082526032908201527f4552433732313a207472616e7366657220746f206e6f6e20455243373231526560408201527131b2b4bb32b91034b6b83632b6b2b73a32b960711b606082015260800190565b6001600160a01b03858116825284166020820152604081018390526080606082018190526000906124e790830184611ec1565b9695505050505050565b60006020828403121561250357600080fd5b81516117ad81611e62565b634e487b7160e01b600052601260045260246000fd5b6000826125335761253361250e565b500490565b6000826125475761254761250e565b50069056feddf252ad1be2c89b69c2b068fc378daa952ba7f163c4a11628f55a4df523b3efa2646970667358221220ebdece73f9b0a97dbd6e5862fd98d4658df728f5ec55484a431a8653ede2a51e64736f6c63430008090033",
  "linkReferences": {},
  "deployedLinkReferences": {}
}